:020000040000FA
:10000000E8000820790100007D0100007F01000068
:100010008101000083010000850100000000000054
:100020000000000000000000000000008701000048
:1000300089010000000000008B0100005D07000046
:10004000B9090000990900008F0100008F0100002C
:100050008F0100008F0100008F010000A90900003E
:100060008F0100008F0100008F0100008F01000050
:100070008F0100008F0100008F0100008F01000040
:100080008F010000590700008F0100008F01000060
:100090008F010000350700008F0100008F01000074
:1000A0008F0100008F0100008F0100008F01000010
:1000B0008F0100008F0100008F0100008F01000000
:1000C0008F0100008F0100008F01000000F002F896
:1000D00000F043F80AA090E8000C82448344AAF19F
:1000E0000107DA4501D100F038F8AFF2090EBAE89D
:1000F0000F0013F0010F18BFFB1A43F0010318475C
:10010000B8130000E8130000103A24BF78C878C183
:10011000FAD8520724BF30C830C144BF04680C600D
:10012000704700000023002400250026103A28BF55
:1001300078C1FBD8520728BF30C148BF0B60704759
:100140001FB59DE8030000F057F900F0C3F81FBD8C
:1001500010B5002000F003F910BD00F005FA1146BB
:10016000FFF7EEFF01F092F900F042FA03B4FFF757
:10017000EFFF03BC00F0F2F908480047FEE7FEE796
:10018000FEE7FEE7FEE7FEE7FEE7FEE7FEE7FEE747
:1001900003480449044A054B70470000CD000000A5
:1001A00000000010E800082000800010E8C00720D0
:1001B00053EA020C00F069802DE9F04B4FF0000685
:1001C000002B1FBFB3FA83F503FA05F424FA05F6F2
:1001D0005E4012BF1643B2FA82F502FA05F4C5F189
:1001E00020051EBF22FA05FC44EA0C04203556EA1D
:1001F000044C4FEA144418BF641C4FF000084FF041
:100200000009904271EB030C39D3002919BFB1FAF0
:1002100081F701FA07F6B0FA80F700FA07F6C7F19E
:1002200020071EBF20FA07FC46EA0C062037B6FB63
:10023000F4FCA7EB0507103F07F01F0BCBF12006DE
:100240000CFA0BFB2CFA06F644BFB3460026202F0F
:10025000A4BF5E464FF0000B5BEA060C08BF4FF0F0
:10026000010B19EB0B09ABFB027C48EB0608C01B2A
:1002700006FB02CC0BFB03CC71EB0C01C1E70B4678
:10028000024641464846BDE8F08B13B54FF00000EA
:100290004FF00001AFF30080BDE81C4070472DE92E
:1002A000F041074615460E46102000F029F80400DC
:1002B0000AD06760C4E9026500F01EF80168216099
:1002C00004600020BDE8F0810120FBE77047704723
:1002D0007047000070B5064C7C44064D7D4403E039
:1002E000206820448047241DAC42F9D170BD000035
:1002F0000C1200001012000000487047BCC007201C
:1003000070B5064600F058F8056806F10B0020F0BD
:100310000704B4429CBF002070BD2B466A68BAB186
:100320001068A04210D304F1080188423CBF506815
:10033000586007D35168101941601168091B0160AA
:1003400058601460101D70BD13465268002AE7D132
:100350002146284600F03CF80028DED170BD2DE98A
:10036000F0410646FFF7C8FF8046454613E016B148
:10037000E068B0420ED120682860D4E90101D8F8C5
:1003800000708847204600F06DF8D8F80000B842A9
:10039000EBD100E025462C68002CE8D1BDE8F081C7
:1003A00010B500F08BF8BDE8104000F082B80000F6
:1003B0000048704784C00720004870478CC0072061
:1003C00000487047B8C007207047704770477047B3
:1003D00038B504460A4600206946AFF3008000287D
:1003E00008BF38BD02460099204600F0E7F801201A
:1003F00038BD012000F029B9F8B5AFF300800546FB
:1004000000200C46102000BF0646A819A0420DD9B6
:10041000324669460020AFF30080070008BF00F0B5
:1004200014F90098A04218BF0546C419FFF7C4FF8D
:1004300005600746F01D20F007004619284600F029
:100440000AF8B44208BFF8BDA21B31463868BDE8BF
:10045000F84000F0B3B800210160C0E90110704716
:100460001020704770B50446051FFFF7A5FF006810
:10047000002C14BF446870BD002C18BFAC423CBFB8
:1004800020466468F8D301680A18AA4218BF45607C
:1004900003D12A6805461144016028684119A14228
:1004A0001CBF6C6070BD6168696021680844286089
:1004B00070BD002801D000F051B8704710B5002180
:1004C00002A000F0A9F8012010BD000053494750D8
:1004D00056464E3A20507572652076697274756181
:1004E0006C20666E2063616C6C656400AFF3008005
:1004F00010B500F00EF8016919B1002202618847B9
:1005000001E08068804700F07CF8000010B500F042
:1005100078F870B500F04EF804680546A4B92020BC
:10052000FFF7EEFE040011D0094900202C60C4E959
:1005300000010849A1602073206160610649A06143
:1005400009B100F089F8E061204670BD00F059F86B
:10055000000000000D050000000000000149182007
:10056000ABBEFEE7260002007546FFF721FFAE4650
:1005700005006946534620F00700854618B020B5AF
:10058000FFF706FEBDE820404FF000064FF00007E1
:100590004FF000084FF0000B21F00701AC46ACE82B
:1005A000C009ACE8C009ACE8C009ACE8C0098D4698
:1005B0007047000000487047C0C0072003464068ED
:1005C0008C46002818BF88423CBF03464068F8D3D9
:1005D00018681844884207D00CF1030020F0070087
:1005E000001D411A521A0146081D0A60FFF73ABF62
:1005F00010B50446AFF300802046BDE81040FFF779
:10060000B5BD10B5002000F04DF8FFF7A1FDBDE825
:1006100010400120FFF7A2BF70B505460C460A2026
:1006200000E06D1C00F036F835B128780028F8D1CC
:1006300002E0641C00F02EF814B120780028F8D1F4
:10064000BDE870400A2000F025B810B500F032F87F
:10065000BDE81040FFF72DBF10B58820FFF750FE12
:10066000002801D00021017010BD802902D808B1F6
:10067000017809B100207047012100F8081B70477C
:1006800018B100F10802914201D00020704700210A
:100690000170704708B569468DF800000320ABBEB5
:1006A00008BD704710B500F02DF8BDE81040FFF709
:1006B00000BF000010B5012805D0002103A0FFF7FE
:1006C000ABFF012010BD09A1F8E7000053494752D4
:1006D000544D454D3A204F7574206F662068656112
:1006E00070206D656D6F7279000000003A204865DA
:1006F0006170206D656D6F727920636F72727570B5
:100700007465640010B5002102A0FFF785FF012089
:1007100010BD0000534947414252543A2041626E95
:100720006F726D616C207465726D696E6174696F52
:100730006E00000010B5064800F036FE4FF0FF30A6
:100740000449086003498C39C1F8AC0010BD0000B1
:100750002CC007208C8002407047000000B5024882
:1007600000F0ACF900BD000008C00720202083493C
:10077000086000BF8148006800F040000028F9D000
:1007800003207E499C39086000207D49C1F8A801FA
:100790007A490C3108600120784994390860794819
:1007A0007749843108600120091F0860AA20744934
:1007B0008C31086055207249C1F88C0000BF704828
:1007C0008830006800F080600028F8D003206C4971
:1007D00080310860AA206A49C1F88C005520684918
:1007E0008C31086023206649A43108600120091F6C
:1007F0000860AA206249AC3108605520086000BF3B
:100800005F48A830006800F480600028F8D003201A
:100810005B49A0310860AA205949C1F8AC005520B5
:100820005749AC31086058485549C4310860002028
:100830005349C1F8C8010846D0F88800C0F30160E8
:10084000032860D14D489438006800F0030030B1AF
:10085000012820D0022839D0032853D100E000BF5E
:10086000474888300068C0F30E00401C40004749EC
:1008700048434349D1F88810C1F30741491CB0FBF4
:10088000F1F13E489C380068C0B2401CB1FBF0F06A
:100890003F49086036E03A4888300068C0F30E00EF
:1008A000401C40003B4948433549D1F88810C1F30A
:1008B0000741491CB0FBF1F130489C380068C0B2D8
:1008C000401CB1FBF0F0324908601BE02C48883036
:1008D0000068C0F30E00401C40004FF4FA4148434A
:1008E0002749D1F88810C1F30741491CB0FBF1F149
:1008F00022489C380068C0B2401CB1FBF0F024498B
:10090000086000BF30E01D489438006800F0030024
:1009100030B1012810D0022819D0032823D100E0DB
:1009200000BF16489C380068C0B2401C1749B1FB94
:10093000F0F01749086016E010489C380068C0B213
:10094000401C1449B1FBF0F0114908600BE00B4862
:100950009C380068C0B2401C4FF4FA41B1FBF0F083
:100960000B49086000BF00BF0548006820F47040D4
:1009700040F480400249086070470000A0C10F4069
:1009800000C00F4063000500DE87280400093D0019
:1009900000C00720001BB70000B5024800F090FC23
:1009A00000BD000011C0072010B50221014800F071
:1009B000D1FB10BD44C00720704700001CB54FF4A8
:1009C00016500A2100230322CDE900100221154808
:1009D00000F094FB14A1134800F084F828211D486E
:1009E00000F070F81C4800F079FC1B4800F0ACFCEB
:1009F0001A4800F02DF91A4800F04EF9194800F095
:100A0000D7F90DE000F032F8144800F009F9144865
:100A100000F032F9134800F043F9134800F0AEFC3F
:100A2000F0E7000044C007200D0A2A2A2A2A2A2AB1
:100A30002A2A2A2A53797374656D20697320737486
:100A40006172746564202A2A2A2A2A2A2A2A2A2AD2
:100A50000D0A000008C0072010C0072012C00720A0
:100A600014C0072015C0072005C007200F4949689A
:100A70000E4A1268914217D00C4909680B4A526815
:100A8000881A0A490968094A5160094949780144A4
:100A9000074A5170074909780144064A117006490E
:100AA00049780144044A51707047000008C007208B
:100AB00012C0072014C0072015C007200168491C78
:100AC00001607047012202600022426007224FF05D
:100AD000E0231A61024A4A43521E5A6170470000DD
:100AE000A086010070B505460C4604E014F8011B11
:100AF000284600F057F820780028F7D1284670BD26
:100B00002DE9FF5F04462248818F204600F054F80B
:100B100020A10090FFF7E6FF01901D4838300178D2
:100B2000019800F049F81BA10290FFF7DBFF03904A
:100B3000174890F82C10039800F03EF8834616A151
:100B4000FFF7D0FF8246124828300178504600F067
:100B500033F8814611A1FFF7C5FF80460C4890F895
:100B60002410404600F028F807460CA1FFF7BAFF12
:100B70000646074820300178304600F01DF805464B
:100B800007A1FFF7AFFF204604B0BDE8F09F0000CB
:100B9000004002402F000000200000003A0000004A
:100BA0000D0A000070B504460D462068294602680B
:100BB00020469047204670BDFEB505460C460026EF
:100BC000002C05DA28682D210268284690476442E7
:100BD0000EE00A2094FBF0F100FB11403030C2B26D
:100BE0003046711CCEB20DF800200A2094FBF0F4C0
:100BF000002CEED126B9286830210268284690479B
:100C0000701E47B207E01DF80710286802682846E2
:100C10009047781E47B2002FF5DA2846FEBD000047
:100C200010B50446607803280EDD227802210748BB
:100C300000F066F9002060702078401C2070207859
:100C4000072801DD0020207010BD000070C00720C3
:100C500070B50446002506E001232A460221054816
:100C600000F0F4F86D1C082DF6DB00202070607099
:100C700070BD000070C0072010B5044620787D28A4
:100C800005DD03490348FFF73BFF0020207010BD3E
:100C900010C0072044C007200021017070470000E9
:100CA00070B504462078B8B90221404800F04AFAED
:100CB00090B102213D4800F06BFA0546612D02D14A
:100CC0000020A07003E0622D01D10120A07001205E
:100CD00020700020607000BF6078322864DDA0784A
:100CE00070BB2078012804D002280FD0032826D119
:100CF00019E041212D48FFF755FF412202212B48E1
:100D000000F0A6FA2078401C207018E04221274805
:100D1000FFF748FF42220221244800F099FA207888
:100D2000401C20700BE043212048FFF73BFF43228B
:100D300002211E4800F08CFA0020207000BF31E034
:100D4000A07801282ED12078012804D002280FD0C5
:100D5000032826D119E043211448FFF723FF43223B
:100D60000221124800F074FA2078401C207018E02C
:100D700042210E48FFF716FF422202210B4800F0E5
:100D800067FA2078401C20700BE041210748FFF7EC
:100D900009FF41220221054800F05AFA0020207084
:100DA00000BF00BF0020607070BD000044C007207D
:100DB0000021017041708170704770B504460D4686
:100DC000284600F013FB206065600020E060206191
:100DD000A06070BD0146886808B900207047CB68E4
:100DE0000868C25CC868401CC8604B68C868984204
:100DF00001DB0020C8608868401E88601046EDE76F
:100E00000246D2E90130984201DB002070471369A5
:100E10001068C1541069401C1061536810699842F1
:100E200001DB002010619068401C90600120EDE71C
:100E3000002101604160C1600161704710B5044646
:100E4000206800F0CBFA204610BD000030B571B923
:100E50002A4C246801259540AC43284D2C602C4633
:100E6000246803FA02F52C43244D2C6044E0012948
:100E70000DD1224C256A01249440A5431F4C2562C4
:100E8000246A03FA02F52C431C4D2C6234E002293B
:100E90000DD11A4C256C01249440A543174C2564B0
:100EA000246C03FA02F52C43144D2C6424E003292E
:100EB0000ED1124C246E01259540AC430F4D2C668B
:100EC0002C46246E03FA02F52C430C4D2C6613E0DD
:100ED000042911D1094C8034256801249440A5438C
:100EE000064CC4F88050054C8034246803FA02F59F
:100EF0002C43024DC5F8804030BD000000C00920E1
:100F000010B539B9184B5B69012494406340164C05
:100F1000636128E0012907D1134B5B6B01249440E6
:100F20006340114C63631EE0022907D10E4B5C6DD8
:100F3000012393405C400C4B5C6514E0032907D10E
:100F4000094B5B6F012494406340074C63670AE0E0
:100F5000042908D1044B94331C68012393405C405E
:100F6000014BC3F8944010BD00C00920074901603F
:100F700006492031416005494031816003496031B3
:100F8000C1600249803101617047000000C0092042
:100F90002DE9F74F88B091465648006880080790C1
:100FA0004FF0FF3003900020059004900446054662
:100FB00001264EE00020069043E00698304400FBF6
:100FC00009FC4FF080510798A0FB01010022A0FB13
:100FD000063E01FB06E100FB02106246CDE900304F
:100FE0000023DDE90001FFF7E3F807468846BB462A
:100FF0000022012338464146FFF7DAF88246BBF16A
:10100000004F03D9CBF1000B0AF1010ABAF1000F2E
:1010100002D0BAF5803F00D910E0039883450CD286
:10102000CDF80CB000255446069805900496DDF8DE
:101030000CB0BBF1000F00D106E000BF0698401CC9
:1010400006900698B042B8D300BF039800B902E0FA
:10105000761C0F2EAED900BF07980009049900FB3B
:1010600001FC0846059908440021A0FB042301FB6C
:10107000043100FB05100346CDE900206046002145
:10108000FFF796F802900298814504D90298A9EBDF
:101090000000039003E00298A0EB09000390642194
:1010A00003984843B0FBF9F00390039803281DD23E
:1010B000099802281AD11048007B40F080000E49A0
:1010C0000873200A40EA056008710C700846007B2E
:1010D00020F080000873F021049801EA00100599BF
:1010E00001F00F0108430449283108700BB0BDE836
:1010F000F08F000000C00720008009402DE9FC4768
:1011000005460C4616461F46DDE90A893B4632462F
:1011100021462846CDE9008900F042F8022C0CD186
:101120000720012181404209920002F1E022C2F829
:10113000001100BF032002494860BDE8FC870000A1
:10114000008009400246D068002801DD0120704778
:101150000020FCE770B504460E460C488068C0F3DA
:101160004205012D09D1206A00280DDD04F1180087
:10117000FFF730FE0549087006E0022D04D1034850
:101180000178201DFFF73CFE70BD00000080094083
:1011900070B504460D46201DFFF71CFE70BD000013
:1011A0002DE9F04704460D4616461F46DDE908893D
:1011B0002946204600F062F8022D26D14FF4FA713C
:1011C000201DFFF7FAFD4FF4FA7104F11800FFF744
:1011D000F4FD1148006840F080700F49C439C1F82F
:1011E000C4000E480673007B40EA87000B49087371
:1011F000B8F10A0F09D00846007B40F008000873D8
:101200000846007B40EA08100873E9B24A462046C7
:10121000FFF7BEFEBDE8F087C4C00F400080094064
:10122000022908D100BF044B1B7D03F02003002BD3
:10123000F9D0014B1A7070470080094030B505465F
:101240000C46224602212846FFF7EAFF30BD000087
:1012500070B506460D461446022D0CD10648007D99
:1012600000F0200010B10448047004E0214606F1AB
:101270001800FFF7C5FD70BD0080094002290AD1A2
:10128000054A126842F48012034B1A601A4612682B
:1012900042F480021A60704700C0024010B5044654
:1012A0000648206004F11800FFF7C8FDA0F11804FB
:1012B000201DFFF7C3FD041F204610BDB41400001D
:1012C0004FF04021096801F0010109B101210170CD
:1012D0003F214FF0402211607047000000B50346E7
:1012E0001148006840F400700F49C439C1F8C400C7
:1012F0000E48007800F0100038B10C48007840F03B
:1013000010000A495C3981F85C00FF2007495C390C
:1013100008740020087308720864022008701846D8
:1013200000F006F800BD0000C4C00F405C40024061
:101330000449097A41F00101024A11720121117038
:10134000704700000040024040F2E4710A4A918771
:101350000521094A383211701521074A82F82C10EC
:101360000F21054A283211703021121F11703221CD
:10137000121F11707047000000400240AA214A0766
:10138000117255211172704700B503460548410896
:1013900008616FF07F404860032008701846FFF72F
:1013A000EDFF00BD010000800B49096801F4805188
:1013B00029B1017809B9012100E000210170064935
:1013C000091F096801F4805129B1017809B9012187
:1013D00000E0002101707047A880024010B500F0C5
:1013E00001F810BD10B5FFF73DF810BD10B500F0C5
:1013F00001F810BD10B5040007D1012405E0FEF787
:10140000DFFF006800B9044880472046FEF778FFF8
:101410000028F4D010BD0000ED0400000020FEF70D
:10142000BFBF000010B50248FFF7A0FD10BD0000CF
:1014300070C0072070B50E4C2046FFF797FD04469C
:101440000C4C201DFFF792FD041F0B4C0B490C4860
:101450002060201DFFF7ECFC041F1430FFF7E8FCB0
:10146000A0F11805074A08492846FEF718FF70BD85
:1014700018C007202CC0072044C00720A814000073
:10148000B4140000000000009D120000FFF76EF988
:101490000248FFF779FFFFF791FA000005C0072027
:1014A00000000000000000001D140000000000000B
:1014B000000000003D120000F014000000C00720F2
:1014C0001800000008010000F014000000000010E7
:1014D00000800000240100000815000018C007204B
:1014E000D0400000240100004DFFFFFF39FFFFFF47
:1014F00000093D00000000000000000000000000A6
:081500000000000000000000E3
:04000005000000CD2A
:00000001FF
