:020000040000FA
:1000000068000820690100006D0100006F01000018
:100010007101000073010000750100000000000084
:100020000000000000000000000000007701000058
:1000300079010000000000007B0100007D0100004C
:100040007F0100007F0100007F0100007F010000B0
:100050007F0100007F0100007F0100007F010000A0
:100060007F0100007F0100007F0100007F01000090
:100070007F0100007F0100007F0100007F01000080
:100080007F0100007F0100007F0100007F01000070
:100090007F010000150200007F0100007F010000C9
:1000A0007F0100007F0100007F0100007F01000050
:1000B0007F0100007F0100007F0100007F01000040
:1000C0007F0100007F0100007F01000000F002F8C6
:1000D00000F03AF80AA090E8000C82448344AAF1A8
:1000E0000107DA4501D100F02FF8AFF2090EBAE8A6
:1000F0000F0013F0010F18BFFB1A43F0010318475C
:100100008C030000BC030000103A24BF78C878C1FB
:10011000FAD8520724BF30C830C144BF04680C600D
:10012000704700000023002400250026103A28BF55
:1001300078C1FBD8520728BF30C148BF0B60704759
:100140001FB51FBD10B510BD00F02DF81146FFF70B
:10015000F7FF00F095F900F04BF803B4FFF7F2FF5A
:1001600003BC00F04FF8000008480047FEE7FEE738
:10017000FEE7FEE7FEE7FEE7FEE7FEE7FEE7FEE757
:1001800003480449044A054B70470000CD000000B5
:1001900000000010680008200080001068C00720E0
:1001A000704770477047754600F028F8AE46050066
:1001B0006946534620F00700854618B020B5FFF782
:1001C000DFFFBDE820404FF000064FF000074FF082
:1001D00000084FF0000B21F00701AC46ACE8C00965
:1001E000ACE8C009ACE8C009ACE8C0098D4670476E
:1001F0000446AFF300802046FFF7AFFF004870478A
:1002000008C0072001491820ABBEFEE72600020007
:100210007047000010B5064800F024F94FF0FF3099
:100220000449086003498C39C1F8AC0010BD0000D6
:1002300005C007208C80024020208349086000BF51
:100240008148006800F040000028F9D003207E4972
:100250009C39086000207D49C1F8A8017A490C3119
:1002600008600120784994390860794877498431D9
:1002700008600120091F0860AA2074498C310860B9
:1002800055207249C1F88C0000BF70488830006862
:1002900000F080600028F8D003206C4980310860AD
:1002A000AA206A49C1F88C00552068498C31086041
:1002B00023206649A43108600120091F0860AA2094
:1002C0006249AC3108605520086000BF5F48A83023
:1002D000006800F480600028F8D003205B49A0315A
:1002E0000860AA205949C1F8AC0055205749AC31E3
:1002F000086058485549C431086000205349C1F886
:10030000C8010846D0F88800C0F30160032860D116
:100310004D489438006800F0030030B1012820D027
:10032000022839D0032853D100E000BF4748883065
:100330000068C0F30E00401C400047494843434951
:10034000D1F88810C1F30741491CB0FBF1F13E48D8
:100350009C380068C0B2401CB1FBF0F03F49086017
:1003600036E03A4888300068C0F30E00401C400078
:100370003B4948433549D1F88810C1F30741491C2E
:10038000B0FBF1F130489C380068C0B2401CB1FBB2
:10039000F0F0324908601BE02C4888300068C0F358
:1003A0000E00401C40004FF4FA4148432749D1F861
:1003B0008810C1F30741491CB0FBF1F122489C3879
:1003C0000068C0B2401CB1FBF0F02449086000BFD7
:1003D00030E01D489438006800F0030030B1012877
:1003E00010D0022819D0032823D100E000BF1648FE
:1003F0009C380068C0B2401C1749B1FBF0F01749A7
:10040000086016E010489C380068C0B2401C1449CF
:10041000B1FBF0F0114908600BE00B489C38006814
:10042000C0B2401C4FF4FA41B1FBF0F00B49086038
:1004300000BF00BF0548006820F4704040F48040D1
:100440000249086070470000A0C10F4000C00F4083
:1004500063000500DE87280400093D0000C0072076
:10046000001BB7000549096801F4805129B10178E2
:1004700009B9012100E0002101707047A880024005
:1004800010B5FFF7D9FE002010BD0000BC0400002D
:1004900000C007200800000008010000BC040000A4
:1004A000000000100080000024010000C4040000CF
:1004B00008C00720604000002401000000093D0042
:0404C0000000000038
:04000005000000CD2A
:00000001FF
