:020000040000FA
:10000000980008206D0100007101000073010000DC
:100010007501000077010000790100000000000078
:100020000000000000000000000000007B01000054
:100030007D010000000000007F0100008101000040
:1000400083010000830100008301000083010000A0
:10005000830100008301000083010000810500008E
:100060008301000083010000830100008301000080
:100070008301000083010000830100008301000070
:100080008301000083010000830100008301000060
:1000900083010000310300008301000083010000A0
:1000A0008301000083010000830100008301000040
:1000B0008301000083010000830100008301000030
:1000C00083010000830100008301000000F002F8BA
:1000D00000F03CF80AA090E8000C82448344AAF1A6
:1000E0000107DA4501D100F031F8AFF2090EBAE8A4
:1000F0000F0013F0010F18BFFB1A43F0010318475C
:10010000E807000018080000103A24BF78C878C13A
:10011000FAD8520724BF30C830C144BF04680C600D
:10012000704700000023002400250026103A28BF55
:1001300078C1FBD8520728BF30C148BF0B60704759
:100140001FB500F0A9F81FBD10B510BD00F0B6F83E
:100150001146FFF7F5FF00F0BFFB00F0D4F803B441
:10016000FFF7F2FF03BC00F0DBF80000084800478F
:10017000FEE7FEE7FEE7FEE7FEE7FEE7FEE7FEE757
:10018000FEE7FEE703480449044A054B70470000B8
:10019000CD00000000000010980008200080001032
:1001A00098C0072053EA020C00F069802DE9F04B5B
:1001B0004FF00006002B1FBFB3FA83F503FA05F4D6
:1001C00024FA05F65E4012BF1643B2FA82F502FA2F
:1001D00005F4C5F120051EBF22FA05FC44EA0C0413
:1001E000203556EA044C4FEA144418BF641C4FF003
:1001F00000084FF00009904271EB030C39D300293D
:1002000019BFB1FA81F701FA07F6B0FA80F700FAE0
:1002100007F6C7F120071EBF20FA07FC46EA0C06C6
:100220002037B6FBF4FCA7EB0507103F07F01F0BC8
:10023000CBF120060CFA0BFB2CFA06F644BFB346B2
:100240000026202FA4BF5E464FF0000B5BEA060C91
:1002500008BF4FF0010B19EB0B09ABFB027C48EB1D
:100260000608C01B06FB02CC0BFB03CC71EB0C0198
:10027000C1E70B46024641464846BDE8F08B13B540
:100280004FF000004FF00001AFF30080BDE81C40CC
:10029000704770477047704770B5064C7C44064DF8
:1002A0007D4403E0206820448047241DAC42F9D1FE
:1002B00070BD00007806000078060000754600F06A
:1002C0002BF8AE4605006946534620F007008546E8
:1002D00018B020B5FFF756FFBDE820404FF00006EC
:1002E0004FF000074FF000084FF0000B21F007011E
:1002F000AC46ACE8C009ACE8C009ACE8C009ACE861
:10030000C0098D46704710B50446AFF30080204603
:10031000BDE81040FFF723BF0048704734C00720F6
:1003200001491820ABBEFEE726000200704700001E
:1003300010B5064800F0A6FA4FF0FF3004490860F7
:1003400003498C39C1F8AC0010BD00001CC0072067
:100350008C80024020208349086000BF81480068EB
:1003600000F040000028F9D003207E499C39086045
:1003700000207D49C1F8A8017A490C3108600120AC
:1003800078499439086079487749843108600120B8
:10039000091F0860AA2074498C31086055207249F1
:1003A000C1F88C0000BF70488830006800F08060A1
:1003B0000028F8D003206C4980310860AA206A49DF
:1003C000C1F88C00552068498C31086023206649AB
:1003D000A43108600120091F0860AA206249AC31DD
:1003E00008605520086000BF5F48A830006800F42E
:1003F00080600028F8D003205B49A0310860AA2063
:100400005949C1F8AC0055205749AC3108605848EB
:100410005549C431086000205349C1F8C801084655
:10042000D0F88800C0F30160032860D14D489438AB
:10043000006800F0030030B1012820D0022839D034
:10044000032853D100E000BF474888300068C0F35C
:100450000E00401C4000474948434349D1F88810EA
:10046000C1F30741491CB0FBF1F13E489C380068DC
:10047000C0B2401CB1FBF0F03F49086036E03A489A
:1004800088300068C0F30E00401C40003B494843E0
:100490003549D1F88810C1F30741491CB0FBF1F18F
:1004A00030489C380068C0B2401CB1FBF0F03249C3
:1004B00008601BE02C4888300068C0F30E00401C28
:1004C00040004FF4FA4148432749D1F88810C1F35E
:1004D0000741491CB0FBF1F122489C380068C0B2CA
:1004E000401CB1FBF0F02449086000BF30E01D481B
:1004F0009438006800F0030030B1012810D00228C1
:1005000019D0032823D100E000BF16489C380068AA
:10051000C0B2401C1749B1FBF0F01749086016E063
:1005200010489C380068C0B2401C1449B1FBF0F080
:10053000114908600BE00B489C380068C0B2401CB1
:100540004FF4FA41B1FBF0F00B49086000BF00BF67
:100550000548006820F4704040F48040024908607B
:1005600070470000A0C10F4000C00F4063000500AD
:10057000DE87280400093D0000C00720001BB700EB
:1005800000B50221014800F011F900BD05C00720A7
:1005900010B5034800F006F8014800F013F810BD4C
:1005A00004C007201CB504464FF416500A2100234E
:1005B0000322CDE900100221014800F0D3F81CBD50
:1005C00005C0072002E0024800F056F9FBE70000F2
:1005D000FFC99A3B0749016006492031416005493E
:1005E0004031816003496031C1600249803101615D
:1005F0007047000000C009202DE9F74F88B09146F0
:1006000056480068800807904FF0FF3003900020A4
:10061000059004900446054601264EE00020069011
:1006200043E00698304400FB09FC4FF080510798E6
:10063000A0FB01010022A0FB063E01FB06E100FB3E
:1006400002106246CDE900300023DDE90001FFF72A
:10065000A9FD07468846BB4600220123384641468D
:10066000FFF7A0FD8246BBF1004F03D9CBF1000B91
:100670000AF1010ABAF1000F02D0BAF5803F00D9A1
:1006800010E0039883450CD2CDF80CB000255446F9
:10069000069805900496DDF80CB0BBF1000F00D170
:1006A00006E000BF0698401C06900698B042B8D3FA
:1006B00000BF039800B902E0761C0F2EAED900BF30
:1006C00007980009049900FB01FC084605990844B5
:1006D0000021A0FB042301FB043100FB05100346AD
:1006E000CDE9002060460021FFF75CFD02900298F2
:1006F000814504D90298A9EB0000039003E0029819
:10070000A0EB09000390642103984843B0FBF9F083
:100710000390039803281DD2099802281AD1104883
:10072000007B40F080000E490873200A40EA056013
:1007300008710C700846007B20F080000873F021DF
:10074000049801EA0010059901F00F0108430449DB
:10075000283108700BB0BDE8F08F000000C0072002
:10076000008009402DE9FC4705460C4616461F4609
:10077000DDE90A893B46324621462846CDE9008913
:1007800000F028F8022C0CD10720012181404209F9
:10079000920002F1E022C2F8001100BF03200249DA
:1007A0004860BDE8FC8700000080094070B5054640
:1007B0000E4607488068C0F34204012C07D0022C83
:1007C00005D1034802780221284600F037F870BDB1
:1007D000008009402DE9F04780460C4615461E462C
:1007E000DDE908792146404600F036F8022C1AD19E
:1007F0001048006840F080700E49C439C1F8C40048
:100800000D480573007B40EA86000B4908730A2FE8
:1008100009D00846007B40F0080008730846007BBA
:1008200040EA07100873E1B24A464046FFF7E4FE8B
:10083000BDE8F087C4C00F4000800940022908D1FC
:1008400000BF044B1B7D03F02003002BF9D0014BAC
:100850001A7070470080094002290AD1054A1268BF
:1008600042F48012034B1A601A46126842F4800266
:100870001A60704700C00240002100E0491C81421C
:10088000FCD370470B49096801F4805129B1017804
:1008900009B9012100E0002101700649091F09681A
:1008A00001F4805129B1017809B9012100E000214A
:1008B00001707047A880024010B5054C2046FFF734
:1008C00089FE0446034C201DFFF784FE041F10BD63
:1008D00008C007201CC0072010B5FFF73BFDFFF73D
:1008E00057FE002010BD00001C09000000C00720BA
:1008F00008000000080100001C09000000000010B2
:1009000000800000240100002409000008C0072026
:100910009040000024010000A1FFFFFF00093D00FE
:0409200000000000D3
:04000005000000CD2A
:00000001FF
