:020000040000FA
:10000000900008206D0100007101000073010000E4
:100010007501000077010000790100000000000078
:100020000000000000000000000000007B01000054
:100030007D010000000000007F0100008101000040
:1000400083010000830100008301000083010000A0
:100050008301000083010000830100008301000090
:100060008301000083010000830100008301000080
:100070008301000083010000830100008301000070
:100080008301000083010000830100008301000060
:100090008301000041020000830100008301000091
:1000A0008301000083010000830100008301000040
:1000B0008301000083010000830100008301000030
:1000C00083010000830100008301000000F002F8BA
:1000D00000F03CF80AA090E8000C82448344AAF1A6
:1000E0000107DA4501D100F031F8AFF2090EBAE8A4
:1000F0000F0013F0010F18BFFB1A43F0010318475C
:10010000A8060000D8060000103A24BF78C878C1BD
:10011000FAD8520724BF30C830C144BF04680C600D
:10012000704700000023002400250026103A28BF55
:1001300078C1FBD8520728BF30C148BF0B60704759
:100140001FB500F033F81FBD10B510BD00F040F82A
:100150001146FFF7F5FF00F01FFB00F05EF803B457
:10016000FFF7F2FF03BC00F063F800000848004707
:10017000FEE7FEE7FEE7FEE7FEE7FEE7FEE7FEE757
:10018000FEE7FEE703480449044A054B70470000B8
:10019000CD0000000000001090000820008000103A
:1001A00090C00720704770477047000070B5064C3C
:1001B0007C44064D7D4403E0206820448047241D94
:1001C000AC42F9D170BD00002406000024060000F6
:1001D000754600F029F8AE4605006946534620F002
:1001E0000700854618B020B5FFF7CCFFBDE82040DA
:1001F0004FF000064FF000074FF000084FF0000BE3
:1002000021F00701AC46ACE8C009ACE8C009ACE895
:10021000C009ACE8C0098D4670470446AFF30080C2
:100220002046FFF79CFF00000048704730C00720C1
:1002300001491820ABBEFEE726000200704700000F
:1002400010B5064800F034FA4FF0FF30044908605A
:1002500003498C39C1F8AC0010BD000018C007205C
:100260008C80024020208349086000BF81480068DC
:1002700000F040000028F9D003207E499C39086036
:1002800000207D49C1F8A8017A490C31086001209D
:1002900078499439086079487749843108600120A9
:1002A000091F0860AA2074498C31086055207249E2
:1002B000C1F88C0000BF70488830006800F0806092
:1002C0000028F8D003206C4980310860AA206A49D0
:1002D000C1F88C00552068498C310860232066499C
:1002E000A43108600120091F0860AA206249AC31CE
:1002F00008605520086000BF5F48A830006800F41F
:1003000080600028F8D003205B49A0310860AA2053
:100310005949C1F8AC0055205749AC3108605848DC
:100320005549C431086000205349C1F8C801084646
:10033000D0F88800C0F30160032860D14D4894389C
:10034000006800F0030030B1012820D0022839D025
:10035000032853D100E000BF474888300068C0F34D
:100360000E00401C4000474948434349D1F88810DB
:10037000C1F30741491CB0FBF1F13E489C380068CD
:10038000C0B2401CB1FBF0F03F49086036E03A488B
:1003900088300068C0F30E00401C40003B494843D1
:1003A0003549D1F88810C1F30741491CB0FBF1F180
:1003B00030489C380068C0B2401CB1FBF0F03249B4
:1003C00008601BE02C4888300068C0F30E00401C19
:1003D00040004FF4FA4148432749D1F88810C1F34F
:1003E0000741491CB0FBF1F122489C380068C0B2BB
:1003F000401CB1FBF0F02449086000BF30E01D480C
:100400009438006800F0030030B1012810D00228B1
:1004100019D0032823D100E000BF16489C3800689B
:10042000C0B2401C1749B1FBF0F01749086016E054
:1004300010489C380068C0B2401C1449B1FBF0F071
:10044000114908600BE00B489C380068C0B2401CA2
:100450004FF4FA41B1FBF0F00B49086000BF00BF58
:100460000548006820F4704040F48040024908606C
:1004700070470000A0C10F4000C00F40630005009E
:10048000DE87280400093D0000C00720001BB700DC
:1004900010B5034800F05AF9014800F023F910BDE7
:1004A00018C0072030B571B92A4C24680125954041
:1004B000AC43284D2C602C46246803FA02F52C43EB
:1004C000244D2C6044E001290DD1224C256A0124E1
:1004D0009440A5431F4C2562246A03FA02F52C437D
:1004E0001C4D2C6234E002290DD11A4C256C0124DC
:1004F0009440A543174C2564246C03FA02F52C4361
:10050000144D2C6424E003290ED1124C246E0125D5
:100510009540AC430F4D2C662C46246E03FA02F531
:100520002C430C4D2C6613E0042911D1094C803466
:10053000256801249440A543064CC4F88050054C1E
:100540008034246803FA02F52C43024DC5F880403C
:1005500030BD000000C00920F0B507460E46144625
:100560001D460023224631463846FFF79BFF1520E3
:10057000012181404209920002F1E022C2F80011FB
:1005800000BF022E2CD10DB1022D11D115480068EB
:100590000121A14088431349B439C1F8B40011487E
:1005A00000680121A14008430E49B439C1F8B400E4
:1005B000012D01D0022D13D10A48001F006801212E
:1005C000A14088430749B439C1F8B0000548001F6D
:1005D00000680121A14008430249B439C1F8B000C4
:1005E000F0BD0000B480024010B521B90123934052
:1005F0000F4CA3611BE0012904D1012393400C4C53
:10060000A36314E0022904D101239340084CA3659D
:100610000DE0032904D101239340054CA36706E0B4
:10062000042904D101239340014C9834236010BD68
:1006300000C0092010B521B9012393400F4CE3619C
:100640001BE0012904D1012393400C4CE36314E027
:10065000022904D101239340084CE3650DE00329EE
:1006600004D101239340054CE36706E0042904D13B
:1006700001239340014C9C34236010BD00C009202D
:1006800007490160064920314160054940318160D8
:1006900003496031C1600249803101617047000047
:1006A00000C00920002100E0491C8142FCD37047B2
:1006B0000B49096801F4805129B1017809B9012178
:1006C00000E0002101700649091F096801F480510A
:1006D00029B1017809B9012100E0002101707047BA
:1006E000A880024004462DE02078012815D100257D
:1006F00010E02A460221201DFFF776FF1248FFF77F
:10070000D1FF2A460221201DFFF794FF0E48FFF774
:10071000C9FF6D1C082D15DAEBE7082510E02A4605
:100720000221201DFFF760FF0748FFF7BBFF2A46A5
:100730000221201DFFF77EFF0348FFF7B3FF6D1E68
:10074000002DECDAD0E70000FFFF0F0070B5044683
:100750000120207002230C221946201DFFF7FCFE09
:10076000002506E001232A460221201DFFF79AFEFC
:100770006D1C082DF6DB70BD10B5054C2046FFF74B
:100780007FFF0446034C201DFFF77AFF041F10BDB6
:1007900004C0072018C0072010B5FFF763FDFFF75E
:1007A00077FE002010BD0000DC07000000C007201D
:1007B0000400000008010000DC0700000000001039
:1007C0000080000024010000E007000004C00720B2
:1007D0008C40000024010000A1FFFFFF00093D0044
:04000005000000CD2A
:00000001FF
