:020000040000FA
:1000000068000820690100006D0100006F01000018
:100010007101000073010000750100000000000084
:100020000000000000000000000000007701000058
:1000300079010000000000007B0100007D0100004C
:100040007F0100007F0100007F0100007F010000B0
:100050007F0100007F0100007F0100007F010000A0
:100060007F0100007F0100007F0100007F01000090
:100070007F0100007F0100007F0100007F01000080
:100080007F0100007F0100007F0100007F01000070
:100090007F0100007F0100007F0100007F01000060
:1000A0007F0100007F0100007F0100007F01000050
:1000B0007F0100007F0100007F0100007F01000040
:1000C0007F0100007F0100007F01000000F002F8C6
:1000D00000F03AF80AA090E8000C82448344AAF1A8
:1000E0000107DA4501D100F02FF8AFF2090EBAE8A6
:1000F0000F0013F0010F18BFFB1A43F0010318475C
:100100000405000034050000103A24BF78C878C107
:10011000FAD8520724BF30C830C144BF04680C600D
:10012000704700000023002400250026103A28BF55
:1001300078C1FBD8520728BF30C148BF0B60704759
:100140001FB51FBD10B510BD00F02DF81146FFF70B
:10015000F7FF00F049FA00F04BF803B4FFF7F2FFA5
:1001600003BC00F04FF8000008480047FEE7FEE738
:10017000FEE7FEE7FEE7FEE7FEE7FEE7FEE7FEE757
:1001800003480449044A054B70470000CD000000B5
:1001900000000010680008200080001068C00720E0
:1001A000704770477047754600F028F8AE46050066
:1001B0006946534620F00700854618B020B5FFF782
:1001C000DFFFBDE820404FF000064FF000074FF082
:1001D00000084FF0000B21F00701AC46ACE8C00965
:1001E000ACE8C009ACE8C009ACE8C0098D4670476E
:1001F0000446AFF300802046FFF7AFFF004870478A
:1002000008C0072001491820ABBEFEE72600020007
:100210007047000020208349086000BF81480068C3
:1002200000F040000028F9D003207E499C39086086
:1002300000207D49C1F8A8017A490C3108600120ED
:1002400078499439086079487749843108600120F9
:10025000091F0860AA2074498C3108605520724932
:10026000C1F88C0000BF70488830006800F08060E2
:100270000028F8D003206C4980310860AA206A4920
:10028000C1F88C00552068498C31086023206649EC
:10029000A43108600120091F0860AA206249AC311E
:1002A00008605520086000BF5F48A830006800F46F
:1002B00080600028F8D003205B49A0310860AA20A4
:1002C0005949C1F8AC0055205749AC31086058482D
:1002D0005549C431086000205349C1F8C801084697
:1002E000D0F88800C0F30160032860D14D489438ED
:1002F000006800F0030030B1012820D0022839D076
:10030000032853D100E000BF474888300068C0F39D
:100310000E00401C4000474948434349D1F888102B
:10032000C1F30741491CB0FBF1F13E489C3800681D
:10033000C0B2401CB1FBF0F03F49086036E03A48DB
:1003400088300068C0F30E00401C40003B49484321
:100350003549D1F88810C1F30741491CB0FBF1F1D0
:1003600030489C380068C0B2401CB1FBF0F0324904
:1003700008601BE02C4888300068C0F30E00401C69
:1003800040004FF4FA4148432749D1F88810C1F39F
:100390000741491CB0FBF1F122489C380068C0B20B
:1003A000401CB1FBF0F02449086000BF30E01D485C
:1003B0009438006800F0030030B1012810D0022802
:1003C00019D0032823D100E000BF16489C380068EC
:1003D000C0B2401C1749B1FBF0F01749086016E0A5
:1003E00010489C380068C0B2401C1449B1FBF0F0C2
:1003F000114908600BE00B489C380068C0B2401CF3
:100400004FF4FA41B1FBF0F00B49086000BF00BFA8
:100410000548006820F4704040F4804002490860BC
:1004200070470000A0C10F4000C00F4063000500EE
:10043000DE87280400093D0000C00720001BB7002C
:1004400030B571B92A4C246801259540AC43284D3C
:100450002C602C46246803FA02F52C43244D2C60B2
:1004600044E001290DD1224C256A01249440A54382
:100470001F4C2562246A03FA02F52C431C4D2C62A2
:1004800034E002290DD11A4C256C01249440A54377
:10049000174C2564246C03FA02F52C43144D2C648C
:1004A00024E003290ED1124C246E01259540AC4363
:1004B0000F4D2C662C46246E03FA02F52C430C4D8E
:1004C0002C6613E0042911D1094C803425680124DD
:1004D0009440A543064CC4F88050054C80342468F1
:1004E00003FA02F52C43024DC5F8804030BD0000F0
:1004F00000C0092010B521B9012393400F4CA3611E
:100500001BE0012904D1012393400C4CA36314E0A8
:10051000022904D101239340084CA3650DE003296F
:1005200004D101239340054CA36706E0042904D1BC
:1005300001239340014C9834236010BD00C0092072
:1005400010B521B9012393400F4CE3611BE0012951
:1005500004D1012393400C4CE36314E0022904D13D
:1005600001239340084CE3650DE0032904D10123E6
:100570009340054CE36706E0042904D1012393402E
:10058000014C9C34236010BD00C00920002100E014
:10059000491C8142FCD37047054614E0002410E05A
:1005A000224602212846FFF7A5FF0748FFF7EEFF86
:1005B000224602212846FFF7C3FF0348FFF7E6FF64
:1005C000641C082CECDBE9E7FFFF0F0070B5054663
:1005D000002406E00123224602212846FFF730FFCF
:1005E000641C082CF6DB70BD10B5FFF713FE044841
:1005F000FFF7ECFF0248FFF7CFFF002010BD00001F
:1006000004C007203406000000C0072008000000D6
:100610000801000034060000000000100080000007
:10062000240100003C06000008C0072060400000D4
:0C0630002401000000093D000000000053
:04000005000000CD2A
:00000001FF
