:020000040000FA
:10000000C0000820790100007D0100007F01000090
:100010008101000083010000850100000000000054
:100020000000000000000000000000008701000048
:1000300089010000000000008B0100008D0100001C
:10004000510900008F0100008F0100008F010000A6
:100050008F0100008F0100008F01000041090000A6
:100060008F0100008F0100008F0100008F01000050
:100070008F0100008F0100008F0100008F01000040
:100080008F0100008F0100008F0100008F01000030
:100090008F010000F10600008F0100008F010000B9
:1000A0008F0100008F0100008F0100008F01000010
:1000B0008F0100008F0100008F0100008F01000000
:1000C0008F0100008F0100008F01000000F002F896
:1000D00000F043F80AA090E8000C82448344AAF19F
:1000E0000107DA4501D100F038F8AFF2090EBAE89D
:1000F0000F0013F0010F18BFFB1A43F0010318475C
:10010000DC0D00000C0E0000103A24BF78C878C146
:10011000FAD8520724BF30C830C144BF04680C600D
:10012000704700000023002400250026103A28BF55
:1001300078C1FBD8520728BF30C148BF0B60704759
:100140001FB59DE8030000F04FF900F0C3F81FBD94
:1001500010B5002000F003F910BD00F0A4F911461D
:10016000FFF7EEFF00F0AEFE00F0DCF903B4FFF79E
:10017000EFFF03BC00F054FA08480047FEE7FEE733
:10018000FEE7FEE7FEE7FEE7FEE7FEE7FEE7FEE747
:1001900003480449044A054B70470000CD000000A5
:1001A00000000010C000082000800010C0C0072020
:1001B00053EA020C00F069802DE9F04B4FF0000685
:1001C000002B1FBFB3FA83F503FA05F424FA05F6F2
:1001D0005E4012BF1643B2FA82F502FA05F4C5F189
:1001E00020051EBF22FA05FC44EA0C04203556EA1D
:1001F000044C4FEA144418BF641C4FF000084FF041
:100200000009904271EB030C39D3002919BFB1FAF0
:1002100081F701FA07F6B0FA80F700FA07F6C7F19E
:1002200020071EBF20FA07FC46EA0C062037B6FB63
:10023000F4FCA7EB0507103F07F01F0BCBF12006DE
:100240000CFA0BFB2CFA06F644BFB3460026202F0F
:10025000A4BF5E464FF0000B5BEA060C08BF4FF0F0
:10026000010B19EB0B09ABFB027C48EB0608C01B2A
:1002700006FB02CC0BFB03CC71EB0C01C1E70B4678
:10028000024641464846BDE8F08B13B54FF00000EA
:100290004FF00001AFF30080BDE81C4070472DE92E
:1002A000F041074615460E46102000F029F80400DC
:1002B0000AD06760C4E9026500F01EF80168216099
:1002C00004600020BDE8F0810120FBE77047704723
:1002D0007047000070B5064C7C44064D7D4403E039
:1002E000206820448047241DAC42F9D170BD000035
:1002F000300C0000300C00000048704794C007200C
:1003000070B5064600F050F8056806F10B0020F0C5
:100310000704B4429CBF002070BD2B466A68BAB186
:100320001068A04210D304F1080188423CBF506815
:10033000586007D35168101941601168091B0160AA
:1003400058601460101D70BD13465268002AE7D132
:100350002146284600F034F80028DED170BD2DE992
:10036000F0410646FFF7C8FF8046454613E016B148
:10037000E068B0420ED120682860D4E90101D8F8C5
:1003800000708847204600F065F8D8F80000B842B1
:10039000EBD100E025462C68002CE8D1BDE8F081C7
:1003A000004870475CC007200048704764C00720C1
:1003B0000048704790C007207047704770477047EB
:1003C00038B504460A4600206946AFF3008000288D
:1003D00008BF38BD02460099204600F089F8012088
:1003E00038BD012000F0A7B8F8B5AFF3008005468E
:1003F00000200C46102000BF0646A819A0420DD9C7
:10040000324669460020AFF30080070008BF00F0C5
:1004100092F80098A04218BF0546C419FFF7C4FF20
:1004200005600746F01D20F007004619284600F039
:100430000AF8B44208BFF8BDA21B31463868BDE8CF
:10044000F84000F055B800210160C0E90110704784
:100450001020704770B50446051FFFF7A5FF006820
:10046000002C14BF446870BD002C18BFAC423CBFC8
:1004700020466468F8D301680A18AA4218BF45608C
:1004800003D12A6805461144016028684119A14238
:100490001CBF6C6070BD6168696021680844286099
:1004A00070BD00F04FB87546FFF77AFFAE46050005
:1004B0006946534620F00700854618B020B5FFF77F
:1004C00067FEBDE820404FF000064FF000074FF0F8
:1004D00000084FF0000B21F00701AC46ACE8C00962
:1004E000ACE8C009ACE8C009ACE8C0098D4670476B
:1004F000034640688C46002818BF88423CBF03462C
:100500004068F8D318681844884207D00CF10300FB
:1005100020F00700001D411A521A0146081D0A600A
:10052000FFF798BF10B50446AFF300802046BDE842
:100530001040FFF71BBE10B500F022F8BDE81040D8
:1005400000F019B810B500F046F8016919B10022A1
:100550000261884701E08068804700F001F8704739
:1005600010B5002000F07FF8FFF7F2FDBDE8104065
:10057000012000F055B8002801D000F051B87047B4
:1005800010B5012805D0002103A000F053F8012088
:1005900010BD09A1F8E7000053494752544D454D9D
:1005A0003A204F7574206F662068656170206D6514
:1005B0006D6F7279000000003A2048656170206D0F
:1005C000656D6F727920636F727275707465640007
:1005D00010B5FFF7C5FF70B500F028F804680546B0
:1005E000A4B92020FFF78CFE040011D00949002097
:1005F0002C60C4E900010849A1602073206160619A
:100600000649A06109B100F035F8E061204670BDEF
:10061000FFF7A6FF00000000D10500000000000069
:1006200001491820ABBEFEE72600020000487047D3
:1006300098C0072070B505460C460A2000E06D1CE6
:1006400000F036F835B128780028F8D102E0641CB3
:1006500000F02EF814B120780028F8D1BDE87040E1
:100660000A2000F025B810B500F02AF8BDE81040C7
:10067000FFF781BF10B58820FFF742FE002801D0A8
:100680000021017010BD802902D808B1017809B19C
:1006900000207047012100F8081B704718B100F1D5
:1006A0000802914201D0002070470021017070477C
:1006B00008B569468DF800000320ABBE08BD0000F8
:1006C00010B5002102A0FFF7B5FF012010BD00000A
:1006D000534947414252543A2041626E6F726D61F4
:1006E0006C207465726D696E6174696F6E000000D4
:1006F00010B5064800F086FB4FF0FF300449086053
:1007000003498C39C1F8AC0010BD00001CC00720A3
:100710008C80024020208349086000BF8148006827
:1007200000F040000028F9D003207E499C39086081
:1007300000207D49C1F8A8017A490C3108600120E8
:1007400078499439086079487749843108600120F4
:10075000091F0860AA2074498C310860552072492D
:10076000C1F88C0000BF70488830006800F08060DD
:100770000028F8D003206C4980310860AA206A491B
:10078000C1F88C00552068498C31086023206649E7
:10079000A43108600120091F0860AA206249AC3119
:1007A00008605520086000BF5F48A830006800F46A
:1007B00080600028F8D003205B49A0310860AA209F
:1007C0005949C1F8AC0055205749AC310860584828
:1007D0005549C431086000205349C1F8C801084692
:1007E000D0F88800C0F30160032860D14D489438E8
:1007F000006800F0030030B1012820D0022839D071
:10080000032853D100E000BF474888300068C0F398
:100810000E00401C4000474948434349D1F8881026
:10082000C1F30741491CB0FBF1F13E489C38006818
:10083000C0B2401CB1FBF0F03F49086036E03A48D6
:1008400088300068C0F30E00401C40003B4948431C
:100850003549D1F88810C1F30741491CB0FBF1F1CB
:1008600030489C380068C0B2401CB1FBF0F03249FF
:1008700008601BE02C4888300068C0F30E00401C64
:1008800040004FF4FA4148432749D1F88810C1F39A
:100890000741491CB0FBF1F122489C380068C0B206
:1008A000401CB1FBF0F02449086000BF30E01D4857
:1008B0009438006800F0030030B1012810D00228FD
:1008C00019D0032823D100E000BF16489C380068E7
:1008D000C0B2401C1749B1FBF0F01749086016E0A0
:1008E00010489C380068C0B2401C1449B1FBF0F0BD
:1008F000114908600BE00B489C380068C0B2401CEE
:100900004FF4FA41B1FBF0F00B49086000BF00BFA3
:100910000548006820F4704040F4804002490860B7
:1009200070470000A0C10F4000C00F4063000500E9
:10093000DE87280400093D0000C00720001BB70027
:1009400010B50221014800F09DF910BD34C0072008
:100950007047000010B5034800F006F8014800F0A9
:1009600013F810BD04C007201CB504464FF4165000
:100970000A2100230322CDE900100221014800F0E2
:100980005DF91CBD34C0072001240EA202211848C5
:1009900000F0D6F914E0012C05D116A2022114486A
:1009A00000F0CEF906E0022C04D116A20221104874
:1009B00000F0C6F9174800F008FA174800F00BFAE3
:1009C000E9E700000D0A2A2A2A2A2A2A2A2A2A2A9C
:1009D00053797374656D20697320737461727465E3
:1009E00064202A2A2A2A2A2A2A2A2A2A0D0A0000C8
:1009F00034C0072048656C6C6F20576F726C6409B7
:100A000000000000476F6F6462796520576F726C59
:100A1000640900007F96980005C0072070B5044661
:100A20000D46284600F010FA206065600020E06066
:100A30002061A06070BD0146886808B90020704739
:100A4000CB680868C25CC868401CC8604B68C8684E
:100A5000984201DB0020C8608868401E886010460C
:100A6000EDE70246D2E90130984201DB00207047F1
:100A700013691068C1541069401C106153681069F3
:100A8000984201DB002010619068401C90600120BA
:100A9000EDE7002101604160C1600161704710B560
:100AA0000446206800F0C8F9204610BD07490160DF
:100AB0000649203141600549403181600349603178
:100AC000C1600249803101617047000000C0092007
:100AD0002DE9F74F88B09146564800688008079086
:100AE0004FF0FF3003900020059004900446054627
:100AF00001264EE00020069043E00698304400FBBB
:100B000009FC4FF080510798A0FB01010022A0FBD7
:100B1000063E01FB06E100FB02106246CDE9003013
:100B20000023DDE90001FFF743FB07468846BB468B
:100B30000022012338464146FFF73AFB8246BBF1CB
:100B4000004F03D9CBF1000B0AF1010ABAF1000FF3
:100B500002D0BAF5803F00D910E0039883450CD24B
:100B6000CDF80CB000255446069805900496DDF8A3
:100B70000CB0BBF1000F00D106E000BF0698401C8E
:100B800006900698B042B8D300BF039800B902E0BF
:100B9000761C0F2EAED900BF07980009049900FB00
:100BA00001FC0846059908440021A0FB042301FB31
:100BB000043100FB05100346CDE90020604600210A
:100BC000FFF7F6FA02900298814504D90298A9EB42
:100BD0000000039003E00298A0EB09000390642159
:100BE00003984843B0FBF9F00390039803281DD203
:100BF000099802281AD11048007B40F080000E4965
:100C00000873200A40EA056008710C700846007BF2
:100C100020F080000873F021049801EA0010059983
:100C200001F00F0108430449283108700BB0BDE8FA
:100C3000F08F000000C00720008009402DE9FC472C
:100C400005460C4616461F46DDE90A893B463246F4
:100C500021462846CDE9008900F032F8022C0CD15B
:100C60000720012181404209920002F1E022C2F8EE
:100C7000001100BF032002494860BDE8FC87000066
:100C80000080094070B504460E460C488068C0F3E9
:100C90004205012D09D1E06900280DDD04F11400A1
:100CA000FFF7C9FE0549087006E0022D04D103488C
:100CB00001782046FFF7D5FE70BD00000080094096
:100CC0002DE9F04705460C4616461F46DDE9088922
:100CD0002146284600F05CF8022C26D14FF4FA7128
:100CE0002846FFF79BFE4FF4FA7105F11400FFF759
:100CF00095FE1148006840F080700F49C439C1F872
:100D0000C4000E480673007B40EA87000B49087355
:100D1000B8F10A0F09D00846007B40F008000873BC
:100D20000846007B40EA08100873E1B24A462846AC
:100D3000FFF7CEFEBDE8F087C4C00F400080094039
:100D40002DE9F04106460F461446002505E0625D98
:100D50003946304600F006F86D1C605D0028F6D17B
:100D6000BDE8F08170B506460D461446022D0CD143
:100D70000648007D00F0200010B10448047004E033
:100D8000214606F11400FFF76CFE70BD008009409B
:100D900002290AD1054A126842F48012034B1A60F4
:100DA0001A46126842F480021A60704700C002407E
:100DB00010B5044604F11400FFF771FEA0F114040D
:100DC0002046FFF76CFE044610BD002100E0491CE0
:100DD0008142FCD37047AA214A0711725521117232
:100DE0007047000000B503460548410808616FF0F0
:100DF0007F404860032008701846FFF7ECFF00BDF5
:100E0000010000800B49096801F4805129B1017883
:100E100009B9012100E0002101700649091F096894
:100E200001F4805129B1017809B9012100E00021C4
:100E300001707047A880024010B500F001F810BDA5
:100E400010B5FFF707FB10BD10B500F001F810BD9D
:100E500010B5040007D1012405E0FFF7A9FA0068E6
:100E600000B9044880472046FFF74AFA0028F4D02A
:100E700010BD0000A304000070B50D4C2046FFF724
:100E800015FE04460B4C201DFFF710FE041F0A4CF4
:100E90002046FFF7FEFD04461430FFF7FAFDA0F1EF
:100EA0001405064A06492846FFF7F9F970BD000007
:100EB00008C007201CC0072034C007200000000025
:100EC000B10D000010B5FFF725FC0348FFF78AFFBE
:100ED000FFF740FD002010BD05C00720100F0000E7
:100EE00000C007200800000008010000100F0000EB
:100EF000000000100080000024010000180F000016
:100F000008C00720B8400000240100006DFFFFFF6B
:080F100000093D000000000093
:04000005000000CD2A
:00000001FF
